:020000040800F2
:1000000000500020E51F0008191D00081B1D0008F6
:100010001D1D00081F1D0008211D00080000000014
:10002000000000000000000000000000231D000888
:10003000251D000800000000271D0008291D0008DC
:100040002D2000082D2000082D2000082D2000085C
:100050002D2000082D2000082D2000082D2000084C
:100060002D2000082D2000082D200008311D00083B
:100070002D2000082D2000082D2000082D2000082C
:100080002D2000082D2000082D2000082D2000081C
:100090002D2000082D2000082D2000082D2000080C
:1000A0002D2000082D2000082D200008411D0008EB
:1000B0002D2000082D2000082D2000082D200008EC
:1000C0002D2000082D2000082D2000082D200008DC
:1000D0002D2000082D2000082D2000082D200008CC
:1000E0002D2000082D2000082D2000080000000011
:1000F0000000000000000000000000000000000000
:0C01000000000000000000005FF808F1A3
:1001100010B5054C237833B9044B13B10448AFF341
:1001200000800123237010BDE006002000000000C5
:10013000D8A1000808B5034B1BB103490348AFF32E
:10014000008008BD00000000E4060020D8A10008DF
:1001500081F0004102E000BF83F0004330B54FEA78
:1001600041044FEA430594EA050F08BF90EA020FE5
:100170001FBF54EA000C55EA020C7FEA645C7FEA78
:10018000655C00F0E2804FEA5454D4EB5555B8BF9B
:100190006D420CDD2C4480EA020281EA030382EA0C
:1001A000000083EA010180EA020281EA0303362D9E
:1001B00088BF30BD11F0004F4FEA01314FF4801C71
:1001C0004CEA113102D0404261EB410113F0004F83
:1001D0004FEA03334CEA133302D0524263EB43033A
:1001E00094EA050F00F0A780A4F10104D5F1200ED8
:1001F0000DDB02FA0EFC22FA05F2801841F1000133
:1002000003FA0EF2801843FA05F359410EE0A5F106
:1002100020050EF1200E012A03FA0EFC28BF4CF037
:10022000020C43FA05F3C01851EBE37101F00045ED
:1002300007D54FF0000EDCF1000C7EEB00006EEBFA
:100240000101B1F5801F1BD3B1F5001F0CD3490884
:100250005FEA30004FEA3C0C04F101044FEA4452DB
:1002600012F5800F80F09A80BCF1004F08BF5FEA62
:10027000500C50F1000041EB045141EA050130BD42
:100280005FEA4C0C404141EB0101013C28BFB1F554
:10029000801FE9D291F0000F04BF01460020B1FA9F
:1002A00081F308BF2033A3F10B03B3F120020CDA72
:1002B0000C3208DD02F1140CC2F10C0201FA0CF050
:1002C00021FA02F10CE002F11402D8BFC2F1200CB5
:1002D00001FA02F120FA0CFCDCBF41EA0C0190406B
:1002E000E41AA2BF01EB0451294330BD6FEA0404B4
:1002F0001F3C1CDA0C340EDC04F11404C4F120029F
:1003000020FA04F001FA02F340EA030021FA04F3B0
:1003100045EA030130BDC4F10C04C4F1200220FA07
:1003200002F001FA04F340EA0300294630BD21FA45
:1003300004F0294630BD94F0000F83F4801306BF0B
:1003400081F480110134013D4EE77FEA645C18BFFF
:100350007FEA655C29D094EA050F08BF90EA020F96
:1003600005D054EA000C04BF1946104630BD91EA8E
:10037000030F1EBF0021002030BD5FEA545C05D191
:100380004000494128BF41F0004130BD14F58004D0
:100390003CBF01F5801130BD01F0004545F0FE4144
:1003A00041F470014FF0000030BD7FEA645C1ABF79
:1003B000194610467FEA655C1CBF0B46024650EAB0
:1003C000013406BF52EA033591EA030F41F40021DC
:1003D00030BD00BF90F0000F04BF0021704730B562
:1003E0004FF4806404F132044FF000054FF0000137
:1003F00050E700BF90F0000F04BF0021704730B5F8
:100400004FF4806404F1320410F0004548BF4042CC
:100410004FF000013EE700BF42004FEAE2014FEA21
:1004200031014FEA02701FBF12F07F4393F07F4FFC
:1004300081F06051704732F07F4208BF704793F0FF
:100440007F4F04BF41F40021704730B54FF4607412
:1004500001F0004521F000411CE700BF50EA010215
:1004600008BF704730B54FF000050AE050EA0102BE
:1004700008BF704730B511F0004502D5404261EB2E
:1004800041014FF4806404F132045FEA915C3FF46F
:10049000D8AE4FF003025FEADC0C18BF03325FEA0C
:1004A000DC0C18BF033202EBDC02C2F1200300FABD
:1004B00003FC20FA02F001FA03FE40EA0E0021FAE2
:1004C00002F11444BDE600BF4FEA4102B2F1E0433D
:1004D00024BFB3F5001CDCF1FE5C0DD901F0004C2B
:1004E0004FEAC0024CEA5070B2F1004F40EB83007B
:1004F00008BF20F00100704711F0804F21D113F1A7
:100500003872BCBF01F00040704741F480114FEADF
:100510005252C2F11802C2F1200C10FA0CF320FA68
:1005200002F018BF40F001004FEAC1234FEAD32385
:1005300003FA0CFC40EA0C0023FA02F34FEA4303EF
:10054000CCE77FEA625307D150EA01331EBF4FF078
:10055000FE4040F44000704701F0004040F0FE4093
:1005600040F40000704700BF80F0004002E000BF90
:1005700081F0004142001FBF5FEA410392EA030F8E
:100580007FEA226C7FEA236C6AD04FEA1262D2EBD8
:100590001363C1BFD218414048404140B8BF5B42DD
:1005A000192B88BF704710F0004F40F4000020F076
:1005B0007F4018BF404211F0004F41F4000121F08C
:1005C0007F4118BF494292EA030F3FD0A2F10102D6
:1005D00041FA03FC10EB0C00C3F1200301FA03F114
:1005E00000F0004302D5494260EB4000B0F5000F37
:1005F00013D3B0F1807F06D340084FEA310102F1F6
:100600000102FE2A51D2B1F1004F40EBC25008BFA7
:1006100020F0010040EA03007047490040EB000071
:10062000013A28BFB0F5000FEDD2B0FA80FCACF172
:10063000080CB2EB0C0200FA0CF0AABF00EBC2509F
:1006400052421843BCBFD0401843704792F0000F8D
:1006500081F4000106BF80F400000132013BB5E7E0
:100660004FEA41037FEA226C18BF7FEA236C21D056
:1006700092EA030F04D092F0000F08BF08467047BB
:1006800090EA010F1CBF0020704712F07F4F04D189
:10069000400028BF40F00040704712F100723CBF9C
:1006A00000F50000704700F0004343F0FE4040F4C6
:1006B000000070477FEA226216BF08467FEA236384
:1006C0000146420206BF5FEA412390EA010F40F46F
:1006D000800070474FF0000304E000BF10F00043BB
:1006E00048BF40425FEA000C08BF704743F09643A2
:1006F00001464FF000001CE050EA010208BF7047BD
:100700004FF000030AE000BF50EA010208BF704743
:1007100011F0004302D5404261EB41015FEA010C58
:1007200002BF84460146002043F0B64308BFA3F150
:100730008053A3F50003BCFA8CF2083AA3EBC25332
:1007400010DB01FA02FC634400FA02FCC2F1200251
:10075000BCF1004F20FA02F243EB020008BF20F088
:100760000100704702F1200201FA02FCC2F12002EE
:1007700050EA4C0021FA02F243EB020008BF20EAE3
:10078000DC7070474FF0FF0C1CEAD0521EBF1CEA11
:10079000D15392EA0C0F93EA0C0F6FD01A4480EAFF
:1007A000010C400218BF5FEA41211ED04FF00063E8
:1007B00043EA501043EA5111A0FB01310CF0004014
:1007C000B1F5000F3EBF490041EAD3715B0040EA3A
:1007D000010062F17F02FD2A1DD8B3F1004F40EB0A
:1007E000C25008BF20F00100704790F0000F0CF0DD
:1007F000004C08BF49024CEA502040EA51207F3AA1
:10080000C2BFD2F1FF0340EAC250704740F400007B
:100810004FF00003013A5DDC12F1190FDCBF00F06C
:1008200000407047C2F10002410021FA02F1C2F11A
:10083000200200FA02FC5FEA310040F1000053EAB6
:100840004C0308BF20EADC70704792F0000F00F004
:10085000004C02BF400010F4000F013AF9D040EA0A
:100860000C0093F0000F01F0004C02BF490011F49E
:10087000000F013BF9D041EA0C018FE70CEAD1539C
:1008800092EA0C0F18BF93EA0C0F0AD030F0004C1C
:1008900018BF31F0004CD8D180EA010000F00040D0
:1008A000704790F0000F17BF90F0004F084691F08E
:1008B000000F91F0004F14D092EA0C0F01D14202C8
:1008C0000FD193EA0C0F03D14B0218BF084608D191
:1008D00080EA010000F0004040F0FE4040F40000DB
:1008E000704740F0FE4040F4400070474FF0FF0C6E
:1008F0001CEAD0521EBF1CEAD15392EA0C0F93EAB5
:100900000C0F69D0A2EB030280EA010C49024FEA06
:10091000402037D04FF0805343EA111143EA1013BF
:100920000CF000408B4238BF5B0042F17D024FF477
:10093000000C8B4224BF5B1A40EA0C00B3EB510F52
:1009400024BFA3EB510340EA5C00B3EB910F24BF3B
:10095000A3EB910340EA9C00B3EBD10F24BFA3EBC0
:10096000D10340EADC001B0118BF5FEA1C1CE0D188
:10097000FD2A3FF650AF8B4240EBC25008BF20F03B
:10098000010070470CF0004C4CEA50207F32C2BF8F
:10099000D2F1FF0340EAC250704740F400004FF02C
:1009A0000003013A37E792F0000F00F0004C02BF5D
:1009B000400010F4000F013AF9D040EA0C0093F027
:1009C000000F01F0004C02BF490011F4000F013B81
:1009D000F9D041EA0C0195E70CEAD15392EA0C0FE9
:1009E00008D142027FF47DAF93EA0C0F7FF470AF21
:1009F000084676E793EA0C0F04D14B023FF44CAF64
:100A000008466EE730F0004C18BF31F0004CCAD1F8
:100A100030F000427FF45CAF31F000437FF43CAF34
:100A20005FE700BF4FF0FF3C06E000BF4FF0010C56
:100A300002E000BF4FF0010C4DF804CD4FEA400238
:100A40004FEA41037FEA226C18BF7FEA236C11D082
:100A500001B052EA530C18BF90EA010F58BFB2EB35
:100A6000030088BFC81738BF6FEAE17018BF40F0B5
:100A7000010070477FEA226C02D15FEA402C05D169
:100A80007FEA236CE4D15FEA412CE1D05DF8040BEE
:100A9000704700BF844608466146FFE70FB5FFF781
:100AA000C9FF002848BF10F1000F0FBD4DF808ED39
:100AB000FFF7F4FF0CBF012000205DF808FB00BF2A
:100AC0004DF808EDFFF7EAFF34BF012000205DF884
:100AD00008FB00BF4DF808EDFFF7E0FF94BF0120D1
:100AE00000205DF808FB00BF4DF808EDFFF7D2FFCE
:100AF00094BF012000205DF808FB00BF4DF808ED11
:100B0000FFF7C8FF34BF012000205DF808FB00BFDD
:100B1000034613F8012B002AFBD1181A013870473D
:100B200070B54FF0FF0C4CF4E06C1CEA11541DBF83
:100B30001CEA135594EA0C0F95EA0C0F00F0DEF84E
:100B40002C4481EA030621EA4C5123EA4C5350EA33
:100B5000013518BF52EA033541F4801143F4801384
:100B600038D0A0FB02CE4FF00005E1FB02E506F015
:100B70000042E0FB03E54FF00006E1FB03569CF06A
:100B8000000F18BF4EF0010EA4F1FF04B6F5007F70
:100B900064F5407404D25FEA4E0E6D4146EB0606E2
:100BA00042EAC62141EA55514FEAC52040EA5E506B
:100BB0004FEACE2EB4F1FD0C88BFBCF5E06F1ED815
:100BC000BEF1004F08BF5FEA500E50F1000041EB4C
:100BD000045170BD06F0004646EA010140EA0200F9
:100BE00081EA0301B4EB5C04C2BFD4EB0C0541EA1B
:100BF000045170BD41F480114FF0000E013C00F330
:100C0000AB8014F1360FDEBF002001F0004170BD53
:100C1000C4F10004203C35DA0C341BDC04F114046C
:100C2000C4F1200500FA05F320FA04F001FA05F2F8
:100C300040EA020001F0004221F0004110EBD370C5
:100C400021FA04F642EB06015EEA430E08BF20EAF1
:100C5000D37070BDC4F10C04C4F1200500FA04F394
:100C600020FA05F001FA04F240EA020001F0004126
:100C700010EBD37041F100015EEA430E08BF20EA99
:100C8000D37070BDC4F1200500FA05F24EEA020EE1
:100C900020FA04F301FA05F243EA020321FA04F010
:100CA00001F0004121FA04F220EA020000EBD370C7
:100CB0005EEA430E08BF20EAD37070BD94F0000FC7
:100CC0000FD101F00046400041EB010111F4801FFB
:100CD00008BF013CF7D041EA060195F0000F18BFAC
:100CE000704703F00046520043EB030313F4801FE8
:100CF00008BF013DF7D043EA0603704794EA0C0FA2
:100D00000CEA135518BF95EA0C0F0CD050EA4106B7
:100D100018BF52EA4306D1D181EA030101F0004134
:100D20004FF0000070BD50EA410606BF104619465C
:100D300052EA430619D094EA0C0F02D150EA013668
:100D400013D195EA0C0F05D152EA03361CBF1046A9
:100D500019460AD181EA030101F0004141F0FE4148
:100D600041F470014FF0000070BD41F0FE4141F4CC
:100D7000780170BD70B54FF0FF0C4CF4E06C1CEACC
:100D800011541DBF1CEA135594EA0C0F95EA0C0F81
:100D900000F0A7F8A4EB050481EA030E52EA03353C
:100DA0004FEA013100F088804FEA03334FF080555D
:100DB00045EA131343EA12634FEA022245EA11158A
:100DC00045EA10654FEA00260EF000419D4208BF3B
:100DD000964244F1FD0404F5407402D25B084FEAE8
:100DE0003202B61A65EB03055B084FEA32024FF494
:100DF00080104FF4002CB6EB020E75EB030E22BFF1
:100E0000B61A754640EA0C005B084FEA3202B6EBB0
:100E1000020E75EB030E22BFB61A754640EA5C005F
:100E20005B084FEA3202B6EB020E75EB030E22BFEF
:100E3000B61A754640EA9C005B084FEA3202B6EBF0
:100E4000020E75EB030E22BFB61A754640EADC00AF
:100E500055EA060E18D04FEA051545EA16754FEA11
:100E600006164FEAC30343EA52734FEAC2025FEA2F
:100E70001C1CC0D111F4801F0BD141EA00014FF0BE
:100E800000004FF0004CB6E711F4801F04BF01438F
:100E90000020B4F1FD0C88BFBCF5E06F3FF6AFAEAB
:100EA000B5EB030C04BFB6EB020C5FEA500C50F13B
:100EB000000041EB045170BD0EF0004E4EEA1131BE
:100EC00014EB5C04C2BFD4EB0C0541EA045170BDC5
:100ED00041F480114FF0000E013C90E645EA060E09
:100EE0008DE60CEA135594EA0C0F08BF95EA0C0F37
:100EF0003FF43BAF94EA0C0F0AD150EA01347FF47F
:100F000034AF95EA0C0F7FF425AF104619462CE755
:100F100095EA0C0F06D152EA03353FF4FDAE1046B8
:100F2000194622E750EA410618BF52EA43067FF409
:100F3000C5AE50EA41047FF40DAF52EA43057FF499
:100F4000EBAE12E74FF0FF3C06E000BF4FF0010CA4
:100F500002E000BF4FF0010C4DF804CD4FEA410C08
:100F60007FEA6C5C4FEA430C18BF7FEA6C5C1BD0D5
:100F700001B050EA410C0CBF52EA430C91EA030F56
:100F800002BF90EA020F0020704710F1000F91EAB3
:100F9000030F58BF994208BF90422CBFD8176FEA81
:100FA000E37040F0010070474FEA410C7FEA6C5C4F
:100FB00002D150EA013C07D14FEA430C7FEA6C5C56
:100FC000D6D152EA033CD3D05DF8040B704700BF82
:100FD0008446104662468C461946634600E000BFD0
:100FE00001B5FFF7B7FF002848BF10F1000F01BDA2
:100FF0004DF808EDFFF7F4FF0CBF012000205DF86D
:1010000008FB00BF4DF808EDFFF7EAFF34BF0120F1
:1010100000205DF808FB00BF4DF808EDFFF7E0FF8A
:1010200094BF012000205DF808FB00BF4DF808EDDB
:10103000FFF7CEFF94BF012000205DF808FB00BF42
:101040004DF808EDFFF7C4FF34BF012000205DF824
:1010500008FB00BF4FEA410C7FEA6C5C02D150EA0A
:10106000013C0AD14FEA430C7FEA6C5C02D152EAA0
:10107000033C02D14FF0000070474FF00100704771
:101080004FEA410212F5001215D211D56FF47873B0
:10109000B3EB625212D94FEAC12343F0004343EA53
:1010A000505311F0004F23FA02F018BF404270472E
:1010B0004FF00000704750EA013005D111F00040B8
:1010C00008BF6FF0004070474FF00000704700BF4E
:1010D00053B94AB9002908BF00281CBF4FF0FF319F
:1010E0004FF0FF3000F08CB9ADF1080C6DE904CE83
:1010F00000F006F8DDF804E0DDE9022304B07047F3
:101100002DE9F047089D8E4604468846002B4AD1BB
:101110008A42174662D9B2FA82F64EB1C6F120036E
:1011200001FA06F820FA03F3B74043EA0808B4408E
:101130004FEA174EB8FBFEF11FFA87FC0EFB118831
:1011400001FB0CF2230C43EA08439A4209D9FB182D
:1011500001F1FF3080F0EB809A4240F2E8800239E2
:101160003B449A1AB2FBFEF00EFB102200FB0CFC73
:10117000A3B243EA02439C4509D9FB1800F1FF32B0
:1011800080F0D7809C4540F2D4803B44023840EA4E
:1011900001400021A3EB0C031DB10022F340C5E97F
:1011A0000032BDE8F0878B4205D90DB1C5E90001D9
:1011B00000210846F5E7B3FA83F1002946D17345CB
:1011C00002D3824200F20881841A6EEB03020120EE
:1011D0009046002DE5D0C5E90048E2E7002A00F07E
:1011E0009180B2FA82F6002E40F0A5808A1A012181
:1011F000030C4FEA174E80B2BCB2B2FBFEFC0EFBF2
:101200001C2243EA024304FB0CF29A4207D9FB1862
:101210000CF1FF3802D29A4200F2E380C4469B1AD6
:10122000B3FBFEF20EFB123302FB04F440EA03436D
:101230009C4207D9FB1802F1FF3002D29C4200F217
:10124000CD8002461B1B42EA0C40A5E7C1F12006F7
:101250008B4022FA06F71F432EFA06FA4FEA174987
:10126000BAFBF9F80EFA01FE20FA06F309FB18AAF8
:101270001FFA87FC43EA0E0300FA01FE08FB0CF09C
:101280001C0C44EA0A44A04202FA01F20AD93C19B1
:1012900008F1FF3A80F09E80A04240F29B80A8F1C6
:1012A00002083C44241A98B2B4FBF9F309FB134436
:1012B00003FB0CFC40EA0444A44509D93C1903F1A2
:1012C000FF3080F08580A44540F28280023B3C44A0
:1012D00043EA0840A4EB0C04A0FB028C644543469F
:1012E000E14664D361D05DB1BEEB030264EB090457
:1012F00004FA06F622FA01F31E43CC40C5E9006465
:1013000000214EE7B1FBF2FC010C41EA0E4180B234
:1013100040EA01423B46B1FBF7F138463C46B8464D
:10132000BE462026A2EB080241EA0C4165E70146D1
:1013300017E710462BE7C6F120012EFA01FCB74053
:101340000EFA06FE20FA01F141EA0E014FEA174EAD
:10135000BCFBFEF8BCB20EFB18CC08FB04F90A0C6F
:1013600042EA0C42B04091454FEA104380B23ED968
:10137000BA1808F1FF3C01D291451FD8A2EB09022F
:10138000B2FBFEF909FB04F80EFB192A8AB242EA05
:101390000A42424529D2BA1809F1FF31C2D2424568
:1013A000C0D2A9F102013A44BCE7C6459BD2B8EBD2
:1013B00002036CEB070C0138E14694E7A7EB09093F
:1013C0004A44B2FBFEF9A8F1020C09FB04F8DBE782
:1013D00003467DE7D04665E70846FAE63B44023A15
:1013E00030E7ACF1020C3B4419E749469AE7A2EB1F
:1013F0000902B2FBFEF9C44609FB04F8C4E700BFCA
:10140000704700BF08B5FFF765F90349FFF7BAF960
:101410000249FFF76BFA08BD3333534000F07F45B4
:1014200008B51021014801F0F9FB08BD0008014092
:1014300010B504460021FFF761FB38B900241049BC
:101440002046FFF75BFBC8B9204610BD0D4920467A
:10145000FFF74CFAFEF7E0FF00220B4B07F0B2FF5C
:1014600000220A4BFFF75CFBFFF72EF80446002131
:10147000FFF726FB0028E2D00024E5E7004CE3E775
:101480000000FA430AD7A33E000008C000408F4086
:1014900008B5FFF71FF90349FFF774F90249FFF791
:1014A00025FA08BD3333534000F07F4508B50821C5
:1014B000014801F0B3FB08BD000801400000000036
:1014C00010B504460021FFF719FB38B90024144970
:1014D0002046FFF713FBD0B9204610BD1149204626
:1014E000FFF704FAFEF798FF00220F4B07F06AFFA0
:1014F00009A3D3E90023FFF713FBFEF7E5FF04463A
:101500000021FFF7DDFA0028E1D00024E4E7044CD5
:10151000E2E700BFAFF30080000000000070B740BA
:1015200000401C46CDCCCC3E000004C000B585B0C8
:1015300000230193029303932448254A02604FF449
:10154000807282600122027303754FF46022C261CF
:1015500043600423036100F0AFFF38BB0123019314
:1015600002930623039301A9184800F0FDFD00BB78
:1015700002230193029301A9144800F0F5FDD8B9A4
:10158000112301930323029301A9104800F0ECFDFD
:10159000A8B910230193042302930DEB03010B4818
:1015A00000F0E2FD70B905B05DF804FB00F092FABE
:1015B000D4E700F08FFADBE700F08CFAE0E700F008
:1015C00089FAE6E700F086FAEDE700BF4007002061
:1015D0000024014010B586B00023029303930493C6
:1015E000059302681E4B9A4201D006B010BD044616
:1015F00003F56C439A6942F400729A619A6902F4A5
:1016000000720092009A9A6942F004029A619B6902
:1016100003F004030193019B062302930323039326
:1016200002A9104801F0ECF90F48104B03600023A9
:10163000436083608022C2604FF4007202614FF405
:101640000062426120228261C36101F0C7F818B9CB
:10165000054B23625C62C8E700F03CFAF8E700BF84
:101660000024014000080140FC0600200800024060
:1016700000B583B002460B464FF0FF310091702158
:10168000024801F013FE03B05DF804FB840700205C
:1016900000B583B002460B464FF0FF310091702138
:1016A000024801F0BFFE03B05DF804FB8407002090
:1016B00000B583B0282000F005FD01210DF10700E1
:1016C000FFF7E6FF9DF8073013F0080F02D003B0D4
:1016D0005DF804FB054B1B68ADF804301B0C8DF85E
:1016E0000630032101A8FFF7C3FFF0E7F0A10008CF
:1016F00030B585B01E4B1B68ADF80C301B0C8DF857
:101700000E30032103A8FFF7B3FF4B2000F0DAFCF3
:10171000062101A8FFF7BCFF9DF90430002B25DB53
:10172000019800BAC0F31310FEF7D4FF0546DDF8A8
:10173000060000BAC0F31300FEF7CCFF04460D49C3
:101740002846FFF71FF84FF05651FFF71BF80A4BDA
:1017500018600A492046FFF715F84FF05651FFF779
:1017600011F80749FEF704FF064B186005B030BDBD
:10177000F4A100080000C8427007002000004843A0
:101780000000484274070020014B1868704700BFF2
:1017900074070020014B1868704700BF70070020D5
:1017A00038B50446084D01224FF40071284601F077
:1017B0003CFA204600F086FC00224FF400712846D7
:1017C00001F033FA38BD00BF000C014000B583B012
:1017D0000A4B5A6942F001025A615B6903F0010346
:1017E0000193019B002211460B2000F0AFFF0B205C
:1017F00000F0BCFF03B05DF804FB00BF0010024026
:101800002DE9F04188B000240494059406940794CF
:10181000264B9A6942F020029A619A6902F02002EE
:101820000192019A9A6942F004029A619A6902F05F
:1018300004020292029A9A6942F008029A619B6934
:1018400003F008030393039B194D22464FF40061F4
:10185000284601F0EAF9174E22464FF4007130464F
:1018600001F0E3F9182304930594069404A928468B
:1018700001F0C6F84FF4006304934FF00108CDF86F
:10188000148006940227079704A9284601F0B8F8A7
:101890004FF400730493CDF814800694079704A9BD
:1018A000304601F0ADF808B0BDE8F081001002400C
:1018B00000080140000C014070B568B10D461446A7
:1018C000064602F0F5FB2946304602F0B3FE2146FB
:1018D000304602F0AFFE70BD00F0FCF8FBE7000000
:1018E000002848D070B504460025294B1D60294BBF
:1018F0001D6003685D62284E01224FF4006130468E
:1019000001F093F9012000F0DDFB2A464FF400615D
:10191000304601F08AF900F0CFFB05461C4B1B68EE
:1019200023B900F0C9FB401B6328F7D900F0C4FBC2
:101930000546184B1B6823B900F0BEFB401B63280B
:10194000F7D9134B1B68F3B1124B1B68DBB1114B7A
:1019500018680F4B1B682268D26AC01A10D4FEF7B1
:10196000BDFE0E49FEF70EFF4FF07C51FEF70AFF59
:101970000B4B18600AE00A4B4FF040421A60704768
:1019800001321044EBE7064B064A1A6070BD00BFF7
:10199000800700207C0700200008014096430B3D93
:1019A00078070020000080BF90B108B5037F042BAA
:1019B00002D0082B06D008BD082102F0A8FB054B79
:1019C0001860F8E70C2102F0A2FB034B1860F2E765
:1019D000704700BF800700207C07002008B50B4837
:1019E0000B4B03600B4B436000238360C3604FF4D9
:1019F0008042026143618361C361036201F078FB4D
:101A000000B908BD00F066F8FBE700BF84070020BE
:101A100000540040A086010010B586B00023029358
:101A20000393049305930268114B9A4201D006B0C8
:101A300010BD104CA36943F00803A361A36903F030
:101A400008030093009BC0230293122303930323F4
:101A5000059302A9084800F0D3FFE36943F400139B
:101A6000E361E36903F400130193019BDFE700BF27
:101A70000054004000100240000C014008B501F085
:101A8000CDF8012800D0002008BD0000F8B50546BB
:101A90000F46164601210D48FFF7F0FF01280AD036
:101AA0004FF4FA7332463946284602F09EFF58B981
:101AB00001242046F8BD04464FF6FF733246044920
:101AC000284602F092FFF4E70024F2E7000C014000
:101AD000F8A1000808B572B66FF03700FFF760FE96
:101AE0004FF47A7000F0EEFAF6E700B595B02822D0
:101AF00000210DEB020003F03CF90023059306934F
:101B0000079308930993019302930393049301228B
:101B10000A924FF480330B930E9202221192129389
:101B20004FF4E01313930AA801F03EFEC8B90F2347
:101B3000059302210691002307934FF480620892D7
:101B4000099305A802F062F868B9022301934FF4E3
:101B50000043039301A802F035F930B915B05DF8E0
:101B600004FBFFF7B7FFFFF7B5FFFFF7B3FF000078
:101B70002DE9F04FADF5137D00F080FAFFF7B5FFCA
:101B8000FFF73EFEFFF722FEFFF7D0FCFFF726FF30
:101B900000F03EF900F0D0F9FFF78AFD0C22082191
:101BA0004348FFF789FE434C204600F009FD04221C
:101BB0004149204600F0BCFB012202213F4801F0D0
:101BC00034F83B48FFF78CFEFFF792FDDFF8E88022
:101BD0003B4CD8F80C300193D8F808300093D8F873
:101BE0000430D8F800203749204603F05DF820463D
:101BF000FEF78EFFDFF8D0A082B221465046FFF7F5
:101C000045FF4FF4FA7000F05DFAFFF7BDFD139049
:101C1000FFF7C0FD0546D8F80000FFF739FC06467F
:101C2000FFF74EFC0746FFF741FC0446D8F80400D6
:101C3000FFF7E8FB8046FFF7FBFB8146FFF7F0FB71
:101C4000224BD3F800B010904846FEF7E5FBCDE9F3
:101C50000E014046FEF7E0FBCDE90C010A94384640
:101C6000FEF7DAFBCDE908013046FEF7D5FBCDE9FA
:101C700006012846FEF7D0FBCDE904011398FEF7D4
:101C8000CBFBCDE902015846FEF7C6FBCDE90001CA
:101C90000F4A4FF4FA7115A802F0D0FF82B215A9CD
:101CA0005046FFF7F3FE4FF47A7000F00BFA88E726
:101CB00050080020400700203C080020000C014094
:101CC000D807002010A200089808002078070020FC
:101CD00044A2000882B00E4B9A6942F001029A6158
:101CE0009A6902F001020092009ADA6942F0805289
:101CF000DA61DB6903F080530193019B054A536865
:101D000023F0E06343F00073536002B0704700BFFC
:101D10000010024000000140FEE7FEE7FEE7FEE79C
:101D2000FEE770477047704708B500F0B9F908BD85
:101D300008B5024800F0C2FD08BD00BFFC06002047
:101D400008B5024802F000FA08BD00BF50080020A4
:101D50000120704708B503F05BF8162303604FF0CD
:101D6000FF3008BD08B54FF0FF31FFF7F3FFFEE786
:101D700070B50C461646002506E0AFF300802146FC
:101D800001F8010B01350C46B542F6DB304670BD5B
:101D900070B50C461646002504E014F8010BAFF3AD
:101DA00000800135B542F8DB304670BD4FF0FF30A2
:101DB00070474FF400534B6000207047012070477C
:101DC0000020704710B503460C4A0D490D480068C5
:101DD00040B10C4800680344521A934206D8094A9D
:101DE000136010BD0748084C0460F2E703F010F8D8
:101DF0000C2303604FF0FF30F3E700BF00500020DA
:101E0000000400004C080020F00B00207047000088
:101E100000B58BB0002306930793089309930493AE
:101E2000059300930193029303932648264A026088
:101E30004722426083604FF6FF72C26003614361D4
:101E4000836102F073FA58BB4FF48053069306A9DE
:101E50001C4802F061FB30BB1A4802F093FA28BB21
:101E600000230493059304A9164802F09BFC00BBD1
:101E700000230093012201920293039308226946F2
:101E8000104802F0D7FAB8B90223009301930C224C
:101E900069460C4802F0CEFA88B90BB05DF804FB35
:101EA000FFF718FED0E7FFF715FED5E7FFF712FEA4
:101EB000D6E7FFF70FFEDBE7FFF70CFEE4E7FFF7DF
:101EC00009FEEAE750080020002C014000B587B069
:101ED000002302930393049305930268144B9A42E0
:101EE00002D007B05DF804FB03F564439A6942F43D
:101EF00000629A619A6902F400620092009A9A69FB
:101F000042F004029A619B6903F004030193019B70
:101F10004FF48063029302A9064800F071FD00228D
:101F200011461B2000F012FC1B2000F01FFCD8E71C
:101F3000002C01400008014008B50A480A4B036024
:101F40004FF41653436000238360C36003610C2287
:101F500042618361C36102F018FD00B908BDFFF75B
:101F6000B9FDFBE7980800200048004010B586B096
:101F7000002302930393049305930268174B9A423C
:101F800001D006B010BD03F5E433DA6942F48022D3
:101F9000DA61DA6902F480220092009A9A6942F0CA
:101FA00008029A619B6903F008030193019B4FF4B7
:101FB000806302930223039303230593084C02A931
:101FC000204600F01DFD4FF40063029300230393AD
:101FD000049302A9204600F013FDD2E70048004018
:101FE000000C0140FFF712FF0B480C490C4A00237C
:101FF00002E0D458C4500433C4188C42F9D3094ABF
:10200000094C002301E013600432A242FBD302F02A
:1020100005FFFFF7ADFD704700000020E00600203F
:102020000CA70008E0060020F00B0020FEE70000EF
:1020300010B504460E4B1A784FF47A73B3FBF2F3E3
:102040000C4A1068B0FBF3F000F09EFB68B90F2C4F
:1020500001D901200AE0002221464FF0FF3000F0B4
:1020600075FB054B1C60002000E0012010BD00BF87
:1020700004000020000000200800002008B5074AE6
:10208000136843F010031360032000F04DFB0F2092
:10209000FFF7CEFFFFF71EFE002008BD0020024024
:1020A000034A1168034B1B780B441360704700BF51
:1020B000E008002004000020014B1868704700BFB2
:1020C000E008002038B50446FFF7F6FF0546B4F1F6
:1020D000FF3F02D0044B1B781C44FFF7EDFF401B71
:1020E000A042FAD338BD00BF04000020704708B5F5
:1020F000436A9A6A12F0500F1ED19A6A42F4007233
:102100009A621A68926802F46022B2F5602F03D0D6
:102110001846FFF7EBFF08BD1A7B002AF8D19A6A30
:1021200022F480729A629A6A12F4805FF0D19A6AFD
:1021300042F001029A62EBE71B6A1B6B9847EAE7E1
:10214000704708B5406AFFF7FBFF08BD704708B548
:10215000406A836A43F040038362C36A43F0040326
:10216000C362FFF7F3FF08BD30B482B000220192D2
:1021700090F82420012A00F08F800346012280F885
:1021800024204A68062A2DD80468606B02EB82027C
:10219000053A4FF01F0C0CFA02FC20EA0C000D6807
:1021A00005FA02F2024362630A68092A38D91C68F8
:1021B000E06802EB42021E3A4FF0070C0CFA02FCF8
:1021C00020EA0C008D6805FA02F20243E2600A6818
:1021D000103A012A34D90020002283F8242002B0CA
:1021E00030BC70470C2A0DD80568286B02EB8202C0
:1021F000233A1F24944020EA04000C6894402043B2
:102200002863D1E70568E86A02EB8202413A1F249D
:10221000944020EA04000C6894402043E862C3E73D
:102220001C68206902EB42024FF0070C0CFA02FC1A
:1022300020EA0C008D6805FA02F202432261C6E72B
:102240001A681648824205D09A6A42F020029A62C1
:102250000120C1E7906810F4000F1BD1906840F492
:10226000000090600A68102A01D00020B4E70C4AF0
:1022700012680C49A1FB0212920C02EB820252007E
:10228000019202E0019A013A0192019A002AF9D1E1
:102290000020A1E700209FE70220A0E700240140E2
:1022A0000000002083DE1B4330B583B00023019380
:1022B00003689A6812F0010F33D104469A6842F01D
:1022C00001029A60184B1B68184AA2FB03239B0C5F
:1022D000019302E0019B013B0193019B002BF9D18B
:1022E000FFF7EAFE054623689B6813F0010F16D13D
:1022F000FFF7E2FE431B022BF5D923689B6813F01E
:10230000010FF0D1A36A43F01003A362E36A43F024
:102310000103E362002384F82430012002E000205E
:1023200000E0002003B030BD0000002083DE1B432E
:10233000F8B504460D46164601684448814259D016
:10234000434B994256D094F82430012B7CD0012382
:1023500084F824302046FFF7A7FF074600286ED1F7
:10236000A16A21F4706121F0010141F48071A16240
:102370002268374B9A4244D0A36A23F48013A362A5
:10238000536813F4806F05D0A36A23F4405343F4D9
:102390008053A362A36A13F4805F48D0E36A23F0FA
:1023A0000603E362002384F82430236A294A9A62F0
:1023B000236A294ADA62236A284A1A6323686FF07B
:1023C00002021A602268936843F480739360216864
:1023D00033462A464C31206A00F034FA23689A6862
:1023E00002F46022B2F5602F24D09A6842F4801281
:1023F0009A6027E0154B5B6813F4702FA3D0012778
:1024000020E0A3F580635B6813F4702FB4D0A36A57
:1024100043F48013A3620D4B5B6813F4806FB9D053
:10242000A36A23F4405343F48053A362B2E700232A
:10243000E362B7E79A6842F4A0029A6002E00023E0
:1024400084F824303846F8BD0227FBE70024014019
:1024500000280140EF200008432100084F21000818
:1024600038B503689A6812F0010F01D1002038BD19
:1024700004469A6822F001029A60FFF71DFE0546A5
:1024800023689B6813F0010F13D0FFF715FE431B61
:10249000022BF5D923689B6813F0010FF0D0A36AD3
:1024A00043F01003A362E36A43F00103E3620120F7
:1024B000DDE70020DBE7000000287BD070B5044694
:1024C000836A002B4DD02046FFF7CAFFA36A13F0A2
:1024D000100369D1002867D1A26A22F4885222F041
:1024E000020242F00202A2626268E1690A43217BB1
:1024F00042EA4102A568B5F5807F02D0012D36D0B1
:102500001D46267D012E35D02668716821F469416B
:10251000294371602568AE68274931401143A9609D
:10252000A168B1F5807F01D0012902D12369013B67
:102530001B052568E96A21F470010B43EB622368EF
:1025400099681E4B0B409A4225D0A36A23F01203D0
:1025500043F01003A362E36A43F00103E362012046
:1025600027E0C36280F82430FFF734F8ABE74FF47C
:102570008075C6E731B9A169013945EA413141F4B5
:102580000065C1E7A16A41F02001A162E16A41F062
:102590000101E162B8E70023E362A36A23F00303C9
:1025A00043F00103A36204E0A36A43F01003A362B3
:1025B000012070BD01207047FDF7E1FFFE0E1FFFF7
:1025C00070B582B00023019390F82430012B72D0B3
:1025D0000446012380F82430FFF742FF2046FFF72E
:1025E00063FE054628B1002384F82430284602B053
:1025F00070BDA36A23F4885323F0020343F002035F
:10260000A3622E4B1E68022001F068FCB6FBF0F6B8
:102610007600019602E0019B013B0193019B002B98
:10262000F9D12268936843F008039360FFF744FDF3
:10263000064623689A6812F0080F14D0FFF73CFD95
:10264000801B0A28F5D923689B6813F0080FF0D087
:10265000A36A23F0120343F01003A362002384F85B
:1026600024300125C2E79A6842F004029A60FFF71D
:1026700023FD064623689B6813F0040F14D0FFF770
:102680001BFD801B0A28F5D923689B6813F0040FF3
:10269000F0D0A36A23F0120343F01003A3620023D7
:1026A00084F824300125A1E7A36A23F0030343F053
:1026B0000103A36297E7022598E700BF000000200E
:1026C000002808DB0901C9B200F1604000F5614053
:1026D00080F80013704700F00F000901C9B2014BE8
:1026E0001954704714ED00E000B500F00700C0F188
:1026F000070CBCF1040F28BF4FF0040C031D062B80
:102700000FD9C31E4FF0FF3E0EFA0CF021EA000174
:1027100099400EFA03FE22EA0E0241EA02005DF839
:1027200004FB0023EEE70000074AD36823F4E063CC
:102730001B041B0C000200F4E060034343F0BF6382
:1027400043F40033D360704700ED00E010B5044659
:10275000054BD868C0F30220FFF7C6FF01462046AC
:10276000FFF7AEFF10BD00BF00ED00E0002807DB63
:1027700000F01F02400901239340024A42F8203032
:10278000704700BF00E100E00138B0F1807F0BD25C
:102790004FF0E0235861054AF02182F82310002011
:1027A000986107221A6170470120704700ED00E030
:1027B00030B40124056CAC40C56B6C600468636088
:1027C0004368102B05D0036899600368DA6030BC59
:1027D000704703689A600368D960F8E750B310B493
:1027E00002460168144B0B441448A0FB03031B0969
:1027F0009B001364124BD363022382F821300868D4
:102800006FF30D10536894682343D468234314690D
:1028100023435469234394692343D46923430343E3
:102820000B6000209063012382F8213082F82000A1
:1028300010BC704701207047F8FFFDBFCDCCCCCC59
:102840000000024038B5044690F82000012832D03C
:10285000012084F8200094F82100C0B2012804D09F
:10286000002384F82030022038BD022084F82100A3
:102870000020A0632568286820F001002860204619
:10288000FFF796FFE36A5BB12268136843F00E031B
:1028900013602268136843F0010313600020E3E72C
:1028A0002268136823F0040313602268136843F05E
:1028B0000A031360EDE70220D6E7000038B5C36BCA
:1028C0001A6804682568016C04238B40134235D0D4
:1028D00015F0040F32D0236813F0200F03D12368C2
:1028E00023F0040323600368434A934214D0143254
:1028F000934218D01432934217D01432934217D017
:102900001432934217D01432934202D04FF08062B7
:1029100003E04FF4800200E00422384B5A60C36A9F
:1029200003B1984738BD4022F7E74FF48062F4E7DF
:102930004FF48042F1E74FF48022EEE702238B4010
:1029400013423CD015F0020F39D0236813F0200F4A
:1029500006D1236823F00A032360012380F8213085
:102960000368254A934214D0143293421CD0143287
:1029700093421BD0143293421BD0143293421BD08B
:102980001432934202D04FF0007203E04FF4001271
:1029900000E00222194B5A60002380F82030836A3D
:1029A000002BBFD09847BDE72022F3E74FF4007219
:1029B000F0E74FF40052EDE74FF40032EAE7082366
:1029C0008B401342AED015F0080FABD0236823F034
:1029D0000E032360026CC16B012303FA02F24A600A
:1029E000836380F82130002380F82030036B002BB4
:1029F00098D0984796E700BF0800024000000240C8
:102A000070B582B00024A446A1E07E4DAB4214D044
:102A10000CD8A5F58015AB420FD005F57025AB425B
:102A20000BD0A5F58015AB4210D106E0764DAB4238
:102A300003D005F58035AB4208D18B68002B50D010
:102A4000012B49D04261082400E0CC68BEF1FF0FA1
:102A500049D806464FEA8C0233680F25954023EA91
:102A6000050304FA02F2134333604B6813F0805FEE
:102A70006BD0664B9A6942F001029A619B6903F040
:102A800001030193019B4FEA9C02951C604B53F894
:102A900025600CF00305AD000F23AB4026EA0306CA
:102AA0005C4B984226D003F58063984200F08C80FE
:102AB00003F58063984200F0898003F580639842B3
:102AC00016D0042317E0CC680434BFE7CC68083480
:102AD000BCE7CC680C34B9E702610824B6E70024EF
:102AE000B4E70424B2E7061DACF108029200B3E794
:102AF000032300E00023AB4033430232444D45F84A
:102B000022304B6813F4801F62D0434A936843EA33
:102B10000E0393604B6813F4001F5FD03E4AD368E6
:102B200043EA0E03D3604B6813F4003F5CD03A4A8B
:102B3000536843EA0E0353604B6813F4803F59D047
:102B4000354A136843EA0E0313600CF1010C0B685D
:102B500033FA0CF254D0012202FA0CF203EA020E0C
:102B600032EA0303F1D14B68122B3FF64EAF122B22
:102B70003FF66CAF01A555F823F000BF3B2A0008D3
:102B80004B2A0008CD2A0008DF2A00084D2A000839
:102B90004D2A00084D2A00084D2A00084D2A000839
:102BA0004D2A00084D2A00084D2A00084D2A000829
:102BB0004D2A00084D2A00084D2A00084D2A000819
:102BC000C72A0008D32A0008012394E7022392E7CA
:102BD000114A936823EA0E0393609BE70E4AD36879
:102BE00023EA0E03D3609EE70B4A536823EA0E03E1
:102BF0005360A1E7084A136823EA0E031360A4E7B1
:102C000002B070BD00002210000031100010024020
:102C1000000001400008014000040140836819429F
:102C200001D001207047002070470AB10161704750
:102C300009040161704703685A6912F4806F01D179
:102C4000002070476FF480625A61002303632022E2
:102C500080F83D2080F83E30026C42F004020264AD
:102C600080F83C30012070472DE9F04106460C46C3
:102C7000174698463BE0FFF71FFA069BC01A4045EF
:102C800002D8B8F1000F32D1012D18D033689B69FA
:102C900024EA03039BB2B3FA83F35B099F4226D174
:102CA00000233363202286F83D2086F83E30326CC4
:102CB00042F02002326486F83C30012027E033687D
:102CC0005B6924EA03039BB2B3FA83F35B09E5E78C
:102CD00033685B6924EA030C1FFA8CFCBCFA8CFC99
:102CE0004FEA5C1C674511D1B8F1FF3FC3D1C4F373
:102CF0000745012DECD033689B6924EA030C1FFAC9
:102D00008CFCBCFA8CFC4FEA5C1CEBE70020BDE8B5
:102D1000F0812DE9F84305460E469046994653E06A
:102D20001A6842F400721A602B686FF480625A616C
:102D300000232B63202285F83D2085F83E302A6C45
:102D400042F004022A6485F83C3001204AE0FFF793
:102D5000B3F9A0EB0900404502D8B8F1000F33D118
:102D6000012F17D02B689B6926EA03039BB2003B17
:102D700018BF012343B300232B63202285F83D2095
:102D800085F83E302A6C42F020022A6485F83C30F7
:102D9000012027E02B685B6926EA03039BB2003B16
:102DA00018BF0123E6E72B689C6926EA0404A4B255
:102DB000003C18BF0124A4B12B685A6912F4806F3B
:102DC000AED1B8F1FF3FC2D1C6F30747012FEAD118
:102DD0002B685C6926EA0404A4B2003C18BF0124F5
:102DE000E9E70020BDE8F883F0B583B004460D465E
:102DF00016461F46C36A082B0DD0012B0BD013F5C6
:102E0000803F08D0036B122B0AD10268136843F489
:102E10008073136004E02268136843F480731360C6
:102E20000097334600224FF001112046FFF71CFFA8
:102E300080B92369B3F5804F16D1236805F0FE05EC
:102E40001D613B46324613492046FFF762FFF8B941
:102E500003B0F0BD23681B6813F4807F02D04FF4E9
:102E6000007323640320F3E7EB11226803F00603E9
:102E700043F0F00313613B46324607492046FFF713
:102E800048FF18B92368EDB21D61DAE70120DFE7DA
:102E90000120DDE702000100080001002DE9F041FA
:102EA00084B004460D4616461F46C26A01680B6888
:102EB00043F480630B60082A0DD0012A0BD012F571
:102EC000803F08D0036B112B0AD10268136843F4CA
:102ED0008073136004E02268136843F48073136006
:102EE0000097334600224FF001112046FFF7BCFE49
:102EF00098B92369B3F5804F19D1236845F00105CE
:102F0000EDB21D613B4632462A492046FFF701FFDC
:102F100000284CD104B0BDE8F08123681B6813F48D
:102F2000807F02D04FF4007323640320F2E74FEA5E
:102F3000E51808F00608236848F0F0021A613B46DD
:102F400032461D492046FFF7E4FE08B10120E1E7C3
:102F50002368EDB21D613B46324616492046FFF715
:102F6000D8FE08B10120D5E70022039223685969F1
:102F70000391996903910399196841F4807119606B
:102F8000009733464FF001112046FFF76DFE20B940
:102F9000226848F0F1031361B4E723681B6813F457
:102FA000807F02D04FF4007323640320B2E7012036
:102FB000B0E700BF020001000800010070B5044640
:102FC0000D46164623685B6913F0800F21D1204619
:102FD000FFF731FEF8B9B5F1FF3FF3D0FFF76CF81A
:102FE000801BA84201D8002DECD123685B6913F047
:102FF000800FE7D100232363202284F83D2084F84A
:103000003E30226C42F02002226484F83C300120E1
:1030100000E0002070BD0120FCE770B504460D46BD
:10302000164623685B6913F0040F21D12046FFF791
:1030300002FEF8B9B5F1FF3FF3D0FFF73DF8801B72
:10304000A84201D8002DECD123685B6913F0040F6E
:10305000E7D100232363202284F83D2084F83E300A
:10306000226C42F02002226484F83C30012000E00F
:10307000002070BD0120FCE770B504460D461646E1
:1030800014E06FF010025A6100232363202284F8B9
:103090003D2084F83E30226C226484F83C300120CC
:1030A00025E023685B6913F0400F10D0236858694E
:1030B00010F0400F1AD1586910F0100FE1D1FEF74F
:1030C000FBFF801BA842ECD8002DEFD1E9E70023DD
:1030D0002363202284F83D2084F83E30226C42F0A5
:1030E0002002226484F83C30012000E0002070BD02
:1030F000002800F0CC8070B5044690F83D30002BDD
:1031000077D0242384F83D302268136823F001032C
:1031100013602268136843F4004313602268136845
:1031200023F40043136000F02DFE62685A4B9A426C
:1031300064D85A4B98428CBF00230123002B40F0E7
:10314000A8805749A1FB00318B0C25686A6822F0E2
:103150003F0242EA91426A6021680A6A22F03F0215
:1031600066684D4DAE424FD8013313430B62216860
:10317000CA6922F44F4222F0FF026568464B9D4225
:103180004CD8431E6D00B3FBF5F3013340F6FC70E1
:10319000034278D0C3F30B031A43CA6121680B685A
:1031A00023F0C003E269206A024313430B602168E5
:1031B0008B6823F4034323F0FF032269E068024392
:1031C00013438B602168CB6823F0FF036269A06919
:1031D00002431343CB602268136843F0010313607A
:1031E00000202064202384F83D30206384F83E00D2
:1031F00070BD80F83C30FEF70FFC82E7294B984207
:103200008CBF0023012399E74FF4967505FB03F368
:10321000254DA5FB03539B090133A6E7A668BEB95C
:10322000431E05EB450CB3FBFCF30133C3F30B0367
:10323000B3FA83F35B0943BBC6B9431E05EB4505EF
:10324000B3FBF5F30133C3F30B0343F40043A3E7EC
:10325000431E05EB850C0CEB8C0CB3FBFCF301332C
:10326000C3F30B03B3FA83F35B09E4E7431E05EBF7
:10327000850505EB8505B3FBF5F30133C3F30B03BC
:1032800043F4404388E7042386E7012384E70120D1
:1032900070470120ACE700BFA08601007F841E00BC
:1032A00083DE1B43FF083D00D34D62102DE9F04340
:1032B00085B004460F46914698460C9EFEF7FCFEEC
:1032C000054694F83D00C0B2202804D002273846B5
:1032D00005B0BDE8F0830095192301224F4920462F
:1032E000FFF7C2FC002840F0928094F83C30012B9C
:1032F00000F08F80012384F83C3023681A6812F0B4
:10330000010F03D11A6842F001021A6022681368A3
:1033100023F400631360212384F83D30102384F8E4
:103320003E3000232364C4F82490A4F82A80638DDF
:1033300023853B4BE3622B46324639462046FFF756
:1033400053FD0746002866D10023039323685A697A
:1033500003929B690393039B11E0236C042B01D020
:103360000127B4E72268136843F400731360F7E79A
:103370002A4631462046FFF750FE00282ED1238DE5
:10338000002B36D02A4631462046FFF717FE00288C
:10339000E3D1626A236812781A61606A431C63622F
:1033A000618D89B2013989B26185238D013B9BB260
:1033B00023852268516911F0040FD9D0002BD7D092
:1033C00043781361636A01336362638D9BB2013B8F
:1033D0009BB26385238D013B2385C9E7236C042BB6
:1033E00001D0012773E72268136843F40073136068
:1033F000F7E72268136843F400731360202384F80E
:103400003D30002384F83E3084F83C305FE70227EB
:103410005DE702275BE7012759E700BF02001000C4
:103420000000FFFF2DE9F04389B004460F469146A6
:103430009846109E00230793FEF73EFE054694F83B
:103440003D00C0B2202804D00227384609B0BDE8AC
:10345000F08300951923012280492046FFF704FCE0
:10346000002840F07A8194F83C30012B00F07781FD
:10347000012384F83C3023681A6812F0010F03D14D
:103480001A6842F001021A602268136823F400638C
:103490001360222384F83D30102384F83E3000234B
:1034A0002364C4F82490A4F82A80638D23856C4B90
:1034B000E3622B46324639462046FFF7EFFC0746CB
:1034C000002840F04E81238D5BB9039323685A692D
:1034D00003929A690392039A1A6842F400721A607E
:1034E000F3E0012B0FD0022B21D02268136843F4A4
:1034F000806313600023069323685A6906929B69D0
:103500000693069BE1E02268136823F4806313604E
:1035100072B60023049323685A6904929A6904924C
:10352000049A1A6842F400721A6062B6CDE022680A
:10353000136843F40063136072B600230593236895
:103540005A6905929A690592059A1A6822F480626E
:103550001A6062B6B9E02A4631462046FFF78CFD74
:10356000002840F0008123681A69636A1A70636A50
:1035700001336362238D013B2385638D9BB2013B45
:103580009BB26385A1E00095334600223549204671
:10359000FFF76AFB002840F0EA802268136823F4F2
:1035A0008063136072B623681A69636A1A70636A6B
:1035B00001336362238D013B2385638D9BB2013B05
:1035C0009BB26385284B1B68DB08284AA2FB0323B8
:1035D0001B0A03EB8303C3EBC3030793079901396A
:1035E00007910799002928D023685A6912F0040F1F
:1035F000F4D01A6842F400721A6023681A69636A88
:103600001A70636A01336362238D013B2385638DE6
:103610009BB2013B9BB2638562B623681A69636AF9
:103620001A70636A01336362238D013B2385638DC6
:103630009BB2013B9BB2638547E0002323632022BA
:1036400084F83D2084F83E30226C42F0200222644F
:1036500062B684F83C300127F7E600BF0200100094
:103660000000FFFF040001000000002089B5F814ED
:103670002A4631462046FFF7FFFC002879D123680F
:103680001A69636A1A70636A01336362228D013AB0
:1036900092B22285638D9BB2013B9BB26385236806
:1036A000596911F0040F10D0032A48D023681A6911
:1036B000636A1A70636A01336362238D013B238559
:1036C000638D9BB2013B9BB26385218D00293BD06A
:1036D0000329CDD801293FF43EAF02297FF453AF2F
:1036E00000953346002224492046FFF7BDFA002802
:1036F0003BD172B62268136843F4007313602368E9
:103700001A69636A1A70636A01336362238D013B2D
:103710002385638D9BB2013B9BB2638562B62368B0
:103720001A69636A1A70636A01336362238D013B0D
:103730002385638D9BB2013B9BB26385C5E71A6805
:1037400022F480621A60B1E7202384F83D30002320
:1037500084F83E3084F83C3077E6022775E602278D
:1037600073E6012771E601276FE601276DE6012761
:103770006BE6012769E600BF0400010082B0084B38
:103780001B68084AA2FB03235B0A00FB03F30193B7
:1037900000BF019B5A1E0192002BF9D102B0704765
:1037A00000000020D34D6210002800F0F18170B5B8
:1037B00082B00446036813F0010F2CD0994B5B686C
:1037C00003F00C03042B1DD0964B5B6803F00C0335
:1037D000082B12D06368B3F5803F41D0002B55D140
:1037E00003F1804303F504331A6822F480321A602F
:1037F0001A6822F480221A6037E08A4B5B6813F45F
:10380000803FE7D0874B1B6813F4003F03D0636809
:10381000002B00F0BF81236813F0020F75D0814B9D
:103820005B6813F00C0F5FD07E4B5B6803F00C03FA
:10383000082B54D02369002B00F08A807A4B012298
:103840001A60FEF739FC0546764B1B6813F0020F31
:1038500075D1FEF731FC401B0228F5D903209EE10B
:10386000704A136843F480331360636843B3FEF710
:1038700023FC05466B4B1B6813F4003FCBD1FEF7CE
:103880001BFC401B6428F5D9032088E1B3F5A02F69
:1038900009D0644B1A6822F480321A601A6822F444
:1038A00080221A60E1E703F18043A3F53C331A68F4
:1038B00042F480221A601A6842F480321A60D4E717
:1038C000FEF7FAFB0546574B1B6813F4003FA2D0E6
:1038D000FEF7F2FB401B6428F5D903205FE1514B52
:1038E0005B6813F4803FA5D14E4B1B6813F0020FA9
:1038F00003D02369012B40F04F814A4A136823F01B
:10390000F803616943EAC1031360236813F0080FE9
:1039100033D0A369002B5CD0434B0122C3F8802431
:10392000FEF7CAFB05463F4B5B6A13F0020F21D13D
:10393000FEF7C2FB401B0228F5D903202FE1394ACC
:10394000136823F0F803616943EAC1031360DCE7FD
:10395000354B00221A60FEF7AFFB0546314B1B6862
:1039600013F0020FD1D0FEF7A7FB401B0228F5D9B8
:10397000032014E10120FFF701FF236813F0040F77
:1039800000F09680274BDB6913F0805F34D1254B24
:10399000DA6942F08052DA61DB6903F08053019307
:1039A000019B0125214B1B6813F4807F26D0E3681F
:1039B000012B3DD0002B53D103F1804303F5043399
:1039C0001A6A22F001021A621A6A22F004021A62CA
:1039D00033E0154B0022C3F88024FEF76DFB05464B
:1039E000104B5B6A13F0020FC7D0FEF765FB401B5C
:1039F0000228F5D90320D2E00025D3E70B4A13684B
:103A000043F480731360FEF757FB0646074B1B68B1
:103A100013F4807FCBD1FEF74FFB801B6428F5D9D0
:103A20000320BCE000100240000042420070004051
:103A30005F4A136A43F001031362E36833B3FEF78E
:103A40003BFB06465A4B1B6A13F0020F2FD1FEF7C1
:103A500033FB801B41F288339842F3D903209EE068
:103A6000052B09D0524B1A6A22F001021A621A6A17
:103A700022F004021A62E0E74D4B1A6A42F0040297
:103A80001A621A6A42F001021A62D6E7FEF714FBC4
:103A90000646474B1B6A13F0020F08D0FEF70CFBDB
:103AA000801B41F288339842F3D9032077E0E5B9CF
:103AB000E369002B72D03E4A526802F00C02082AD9
:103AC00056D0022B17D03B4B00221A66FEF7F4FAB1
:103AD0000446374B1B6813F0007F47D0FEF7ECFA23
:103AE000001B0228F5D9032059E0314AD36923F09D
:103AF0008053D361DCE72F4B00221A66FEF7DCFA15
:103B000005462B4B1B6813F0007F06D0FEF7D4FA56
:103B1000401B0228F5D9032041E0236AB3F5803F1A
:103B20001AD023494B6823F47413226A606A024353
:103B300013434B601F4B01221A66FEF7BDFA044681
:103B40001B4B1B6813F0007F0ED1FEF7B5FA001B6C
:103B50000228F5D9032022E0154A536823F40033E4
:103B6000A1680B435360DCE7002018E0002016E05A
:103B7000012B16D00E4B5B6803F48031226A914210
:103B800011D103F47013626A93420ED1002006E053
:103B900001207047012002E0012000E0002002B077
:103BA00070BD0120FBE70120F9E70120F7E700BF26
:103BB00000100240000042420F4B5B6803F00C0211
:103BC000082A01D00D487047C3F383420C49885C32
:103BD00013F4803F0BD0084B5B68C3F34043094AA2
:103BE000D35C064A02FB00F0B0FBF3F07047064BD3
:103BF00003FB00F0704700BF0010024000127A0083
:103C000000A30008FCA2000800093D00002800F005
:103C1000A08070B50D460446524B1B6803F00703A5
:103C20008B420BD24F4A136823F007030B431360F8
:103C3000136803F007038B4240F08D80236813F074
:103C4000020F17D013F0040F04D0474A536843F40F
:103C5000E0635360236813F0080F04D0424A5368AE
:103C600043F460535360404A536823F0F003A16863
:103C70000B435360236813F0010F31D06368012BAD
:103C800020D0022B25D0384A126812F0020F64D0DF
:103C900035494A6822F0030213434B60FEF70CFAE1
:103CA0000646314B5B6803F00C036268B3EB820F8E
:103CB00016D0FEF701FA801B41F288339842F0D902
:103CC000032045E0284A126812F4003FE0D10120A9
:103CD0003EE0254A126812F0007FD9D1012037E07A
:103CE000204B1B6803F00703AB420AD91D4A136837
:103CF00023F007032B431360136803F00703AB4261
:103D00002DD1236813F0040F06D0174A536823F40B
:103D1000E063E1680B435360236813F0080F07D09A
:103D2000114A536823F46053216943EAC103536085
:103D3000FFF742FF0C4B5B68C3F303130B4AD35CE2
:103D4000D8400B4B18600B4B1868FEF771F9002038
:103D500070BD012070470120FAE70120F8E701203B
:103D6000F6E700BF0020024000100240ECA200086D
:103D70000000002008000020014B1868704700BFB9
:103D80000000002008B5FFF7F7FF044B5B68C3F3A2
:103D90000223034AD35CD84008BD00BF0010024094
:103DA000E4A2000808B5FFF7E7FF044B5B68C3F324
:103DB000C223034AD35CD84008BD00BF00100240B4
:103DC000E4A2000870B582B00446036813F0010F46
:103DD00036D03F4BDB6913F0805F49D13C4BDA6949
:103DE00042F08052DA61DB6903F080530193019B5A
:103DF0000125384B1B6813F4807F3BD0344B1B6A82
:103E000013F4407313D0626802F440729A420ED0E9
:103E10002F4A136A23F440702F490126C1F84064E9
:103E20000026C1F84064106213F0010F36D1284A11
:103E3000136A23F4407361680B431362002D3ED173
:103E4000236813F0020F06D0214A536823F440433D
:103E5000A1680B435360236813F0100F34D01C4A41
:103E6000536823F48003E1680B43536000202CE087
:103E70000025BEE7174A136843F480731360FEF70A
:103E80001BF90646134B1B6813F4807FB6D1FEF76F
:103E900013F9801B6428F5D9032016E0FEF70CF90E
:103EA00006460B4B1B6A13F0020FC0D1FEF704F954
:103EB000801B41F288339842F3D9032005E0D3698F
:103EC00023F08053D361BBE7002002B070BD00BF78
:103ED00000100240007000400000424208B5022875
:103EE0004ED0102803D0012828D0002052E02B4BC0
:103EF0005A68186810F080704CD0C2F38343284988
:103F0000C85C12F4803F15D0244B5B68C3F3404378
:103F1000244AD25C244BB3FBF2F303FB00F01F4BAB
:103F20005B6813F4800F35D14000204BA3FB0030B9
:103F300040082FE01E4B03FB00F0F0E7174B1B6A15
:103F400040F202321A40B2F5817F24D003F440736C
:103F5000B3F5007F04D0B3F5407F09D0002019E00D
:103F60000E4A526A12F0020FF5D049F6404011E0B5
:103F70000A4B186810F400300CD04FF2244009E0CE
:103F8000FFF710FF054B5B68C3F3813301335B0020
:103F9000B0FBF3F008BD4FF40040FBE70010024017
:103FA00014A3000810A3000800127A00ABAAAAAA62
:103FB00000093D0010B4036A046A24F0010404629D
:103FC000846924F0F00C4CEA021223F00A030B433C
:103FD0008261036210BC704730B4056A046A24F041
:103FE00010040462846924F4407C4CEA022C2CF412
:103FF000704C1B039BB243EA0C0325F0A00509019A
:1040000001F0A00129438361016230BC704710B404
:10401000036A046A24F010040462846924F4704C76
:104020004CEA023223F0A00343EA011382610362E7
:1040300010BC704730B4056A046A24F480740462CA
:10404000C46924F0030C4CEA020C2CF0F00C1B01A8
:10405000DBB243EA0C0325F40075090201F4007198
:104060002943C361016230BC704730B4056A046AF9
:1040700024F480540462C46924F4407C4CEA022C89
:104080002CF4704C1B039BB243EA0C0325F400553F
:10409000090301F400512943C361016230BC704738
:1040A000836823F070030B4343F00703836070477A
:1040B00090F83D30DBB2012B22D1022380F83D3055
:1040C0000368114A934210D0B3F1804F0DD0A2F58E
:1040D0009432934209D002F58062934205D01A6867
:1040E00042F001021A60002070479A6802F007024D
:1040F000062A07D01A6842F001021A6000207047B1
:104100000120704700207047002C014070470C29A7
:1041100014D8DFE801F0071313130A1313130D1358
:10412000131310000368586B70470368986B70474F
:104130000368D86B70470368186C7047002070479D
:10414000704770477047704770B504460368DE6873
:104150001D6915F0020F10D016F0020F0DD06FF090
:1041600002021A610123037703689B6913F0030FAE
:104170005ED0FDF719FC0023237715F0040F12D051
:1041800016F0040F0FD023686FF004021A610223A7
:10419000237723689B6913F4407F4FD02046FDF7B7
:1041A00003FC0023237715F0080F12D016F0080F38
:1041B0000FD023686FF008021A6104232377236865
:1041C000DB6913F0030F40D02046FDF7EDFB002321
:1041D000237715F0100F12D016F0100F0FD02368B0
:1041E0006FF010021A61082323772368DB6913F448
:1041F000407F31D02046FDF7D7FB0023237715F011
:10420000010F02D016F0010F2DD115F0800F02D052
:1042100016F0800F2FD115F0400F02D016F0400F8E
:1042200031D115F0200F02D016F0200F33D170BD20
:10423000FFF787FF2046FFF785FF9CE72046FFF743
:1042400080FF2046FFF77EFFABE72046FFF779FFB0
:104250002046FFF777FFBAE72046FFF772FF2046B8
:10426000FFF770FFC9E723686FF001021A6120466B
:10427000FFF766FFC9E723686FF080021A612046E6
:1042800000F0C7FAC7E723686FF040021A612046C2
:10429000FFF759FFC5E723686FF020021A61204637
:1042A00000F0B6FAC3E7000003681F4A90420AD044
:1042B000B0F1804F07D0A2F59432904203D002F5BE
:1042C0008062904203D123F070034A681343164A78
:1042D00090420AD0B0F1804F07D0A2F594329042BC
:1042E00003D002F58062904203D123F44073CA6880
:1042F000134323F080034A69134303608B68C3624E
:104300000B688362084B98420AD00123436103691A
:1043100013F0010F03D0036923F001030361704719
:104320000B690363F1E700BF002C014040B310B5F7
:10433000044690F83D30F3B1022384F83D30214625
:1043400051F8040BFFF7B0FF012384F8463084F8DE
:104350003E3084F83F3084F8403084F8413084F8AF
:10436000423084F8433084F8443084F8453084F88F
:104370003D30002010BD80F83C30FDF7A7FDDBE7A5
:104380000120704740B310B5044690F83D30F3B1BA
:10439000022384F83D30214651F8040BFFF784FFD7
:1043A000012384F8463084F83E3084F83F3084F8A6
:1043B000403084F8413084F8423084F8433084F847
:1043C000443084F8453084F83D30002010BD80F83A
:1043D0003C30FFF79BFEDBE70120704770B4056AB5
:1043E000046A24F0010404628469114EB0420DD0C5
:1043F000B0F1804F0AD0A6F59436B04206D006F54B
:104400008066B04202D044F0010202E024F00304CE
:10441000224322F0F0021B01DBB2134325F00A0213
:1044200001F00A0111438361016270BC704700BF53
:10443000002C014038B590F83C30012B5ED004468A
:104440000D46012380F83C300C2A52D8DFE802F0F8
:1044500007515151195151512C5151513E00CB68C6
:104460004A6809680068FFF7B9FF2268936923F07A
:104470000C03936122689369A9680B439361002040
:1044800038E0CB684A6809680068FFF7A5FD226834
:10449000936923F44063936122689369A96843EAAE
:1044A00001239361002025E0CB684A680968006811
:1044B000FFF7C0FD2268D36923F00C03D3612268A3
:1044C000D369A9680B43D361002013E0CB684A6825
:1044D00009680068FFF7C9FD2268D36923F44063C7
:1044E000D3612268D369A96843EA0123D36100201C
:1044F00000E00120002384F83C3038BD0220FCE7B6
:1045000010B4846824F47F4C42EA03220A4342EA4E
:104510000C02826010BC704790F83C30012B78D0C0
:1045200010B50446012380F83C30022380F83D306A
:104530000268936823F47F4323F0770393600B684A
:10454000602B4CD023D8402B54D011D8202B03D033
:104550000AD80BB1102B05D119462068FFF7A0FD32
:10456000002028E0012026E0302BF5D0012022E0B9
:10457000502B0AD1CA6849680068FFF71BFD50211B
:104580002068FFF78DFD002015E0012013E0B3F552
:10459000805F3AD0B3F5005F14D0702B37D1CB6871
:1045A0004A6889680068FFF7ABFF2268936843F0A8
:1045B000770393600020012384F83D30002384F8C2
:1045C0003C3010BDCB684A6889680068FFF798FFE7
:1045D0002268936843F4804393600020EBE7CA6845
:1045E00049680068FFF713FD60212068FFF758FD58
:1045F0000020E0E7CA6849680068FFF7DBFC40215B
:104600002068FFF74DFD0020D5E70020D3E701200B
:10461000D1E70220704701F01F014FF0010C0CFAA6
:1046200001FC036A23EA0C030362036A8A40134312
:104630000362704710B504460B46002931D190F84B
:104640003E00C0B294F84220D2B2012840F0A180CE
:10465000012A40F09F80002B42D1022284F83E20A4
:1046600084F842202168CA6842F00202CA6001222E
:1046700019462068FFF7CFFF2368494A93427DD04F
:10468000B3F1804F7AD0A2F59432934276D002F5FE
:104690008062934272D01A6842F001021A600020D0
:1046A00078E004290CD008290ED090F84100C0B25F
:1046B000042B0DD0082B0FD094F84520D2B2C4E7BC
:1046C00090F83F00C0B2F3E790F84000C0B2EFE7C7
:1046D00094F84320D2B2B8E794F84420D2B2B4E7B9
:1046E000042B2BD0082B2DD0022184F84110042B51
:1046F0002CD0082B33D0022184F845100C2B4AD83B
:1047000001A151F823F000BF654600089747000853
:104710009747000897470008534700089747000845
:104720009747000897470008654700089747000823
:10473000974700089747000871470008022184F84E
:104740003F10D4E7022184F84010D0E7022284F819
:1047500043202168CA6842F00402CA6087E7022247
:1047600084F844202168CA6842F00802CA607EE7E3
:104770002168CA6842F01002CA6078E79A6802F0BD
:104780000702062A09D01A6842F001021A600020C6
:1047900000E0012010BD1046FCE70020FAE700BF52
:1047A000002C014090F83C20012A2CD010B4034684
:1047B000012280F83C20022280F83D2002685068E7
:1047C000946820F0700C086840EA0C0050601A6889
:1047D0000E4882420AD0B2F1804F07D0A0F5943043
:1047E000824203D000F58060824204D124F080042C
:1047F000496821439160012283F83D20002083F81D
:104800003C0010BC70470220704700BF002C0140E4
:1048100070477047026802F10C0353E8003F23F42D
:1048200090730C3242E800310029F3D1026802F1A2
:10483000140353E8003F23F00103143242E800312F
:104840000029F3D1036B012B05D0202380F84230DF
:10485000002303637047026802F10C0353E8003F32
:1048600023F010030C3242E800310029F3D1ECE7C9
:1048700010B504460268136923F44053C1680B4322
:10488000136183680269134342691A430168CB6864
:1048900023F4B05323F00C031343CB600268536935
:1048A00023F4407381690B4353610268134B9A42AE
:1048B00020D0FFF767FA024602EB820202EB820287
:1048C00063689B00B2FBF3F20D48A0FB023149097B
:1048D000642303FB11231B013233A0FB03035B0999
:1048E00003F0F00202EB011203F00F0321681344FE
:1048F0008B6010BDFFF756FA0246DDE70038014035
:104900001F85EB512DE9F04383B005460E4617464F
:104910009946DDF828802B681C6836EA04040CBF31
:1049200001240024BC4228D1B8F1FF3FF3D0FDF7A9
:10493000C3FBA0EB0900404523D8B8F1000F22D0FB
:104940002B68DA6812F0040FE5D0802EE3D0402EF9
:10495000E1D01A6812F0080FDDD0002401941A6823
:1049600001925B680193019B2846FFF753FF0823E0
:104970006B6485F84040012000E0002003B0BDE8F2
:10498000F0830320FAE70320F8E760B310B504468C
:1049900090F8413013B3242384F841302268D3685F
:1049A00023F40053D3602046FFF762FF22681369A7
:1049B00023F4904313612268536923F02A0353615F
:1049C0002268D36843F40053D3600020606420233E
:1049D00084F8413084F84230606310BD80F8403084
:1049E000FDF7C4FAD7E7012070472DE9F04182B006
:1049F0001E4690F84130DBB2202B56D104460D46BE
:104A00009046002955D00AB901204FE000234364A5
:104A1000212380F84130FDF74FFB0746A4F824809E
:104A2000A4F82680A368B3F5805F02D04FF0000899
:104A300014E023692BB34FF000080FE0202384F823
:104A40004130032032E038F8023B2268C3F3080308
:104A50005360E28C92B2013A92B2E284E38C9BB250
:104A600093B100963B46002280212046FFF74AFF83
:104A70000028E3D1002DE6D015F8012B23685A60F9
:104A8000E7E7A8460025E9E700963B4600224021DB
:104A90002046FFF737FF18B9202384F8413005E09E
:104AA000202384F84130032000E0022002B0BDE85A
:104AB000F0810120FAE70000002310B50446C0E9A8
:104AC0000033C0E90433836081814366C28183611E
:104AD000194608225C3000F04CF90D4BE46123626A
:104AE0000C4B63620C4BA3620C4BE3620C4B9C427D
:104AF00006D003F16802944202D0D0339C4205D123
:104B000004F15800BDE8104000F0ACB910BD00BF82
:104B1000ED4C00080F4D0008474D00086B4D000894
:104B2000E4080020024A0349034800F069B800BFC6
:104B30000C0000204F6900082000002041680C4B49
:104B400010B59942044601D001F001FFA168094B5C
:104B5000994202D0204601F0FAFEE168064B9942E4
:104B600004D02046BDE8104001F0F1BE10BD00BFEA
:104B7000E40800204C090020B409002010B50B4BBC
:104B80000B4C0C4A20461A6004210022FFF794FFC8
:104B900004F1680001220921FFF78EFF04F1D00023
:104BA0000222BDE810401221FFF786BF1C0A002038
:104BB000E4080020254B0008014800F055B900BF6B
:104BC000260A0020014800F050B900BF260A002044
:104BD00010B50446FFF7F0FF636B1BB1BDE8104052
:104BE000FFF7F0BF044B6363044B1B68002BF5D148
:104BF000FFF7C4FFF2E700BF3D4B00081C0A00208E
:104C00002DE9F8430746884614460026D4E9019565
:104C1000B9F1010905D52468002CF7D13046BDE86B
:104C2000F883AB89012B07D9B5F90E30013303D0D6
:104C300029463846C04706436835E9E70CB430B525
:104C4000184B0C1E1D689DB008DA8B234FF0FF3007
:104C50002B601DB0BDE8304002B070474FF40273C6
:104C6000ADF814304FF000031B930CBF234604F142
:104C7000FF33049307934FF6FF7302900690ADF84D
:104C80001630284621AB209A02A9019300F05AFC65
:104C9000431CBCBF8B232B60002CDAD00022029B6C
:104CA0001A70D6E7180000200EB46FF0004110B55E
:104CB00000249DB01FAB0290069007910491094813
:104CC000094953F8042B0591006802A901931B942C
:104CD00000F038FC029B1C701DB0BDE8104003B012
:104CE000704700BF180000200802FFFF10B50C46F7
:104CF000B1F90E1000F068F80028ABBF236DA3894E
:104D00001B1823F48053ACBF2365A38110BD2DE98C
:104D1000F0411F468B890546DB050C46164605D536
:104D200002230022B1F90E1000F03CF8A3893246AC
:104D300023F48053A38128463B46B4F90E10BDE806
:104D4000F04100F053B810B50C46B1F90E1000F068
:104D500029F8431CA38915BF206523F4805343F42D
:104D60008053A38118BFA38110BDB1F90E1000F0CC
:104D700009B803460244934200D1704703F8011B6F
:104D8000F9E7000038B50023054D044608462B60BE
:104D9000FDF70CF8431C02D12B6803B1236038BD2A
:104DA000200A002038B50446084611460022054D69
:104DB0002A601A46FDF704F8431C02D12B6803B1A0
:104DC000236038BD200A002038B504460846114645
:104DD0000022054D2A601A46FCF7CAFF431C02D187
:104DE0002B6803B1236038BD200A002038B5044683
:104DF000084611460022054D2A601A46FCF7C8FFF6
:104E0000431C02D12B6803B1236038BD200A002067
:104E1000014B1868704700BF1800002070B50026CD
:104E20000C4D0D4C641BA410A64209D105F0D4F919
:104E300000260A4D0A4C641BA410A64205D170BD81
:104E400055F8043B98470136EEE755F8043B984780
:104E50000136F2E700A7000800A7000800A7000835
:104E600008A700087047704770477047024B13B19E
:104E7000024800F005B87047000000009D6B000874
:104E8000002301461A46184601F0E8BE2DE9F84312
:104E900006460820894601F095FE8046234F30469D
:104EA00000F044FBBB685D6825F00305A5F1110423
:104EB000A4EB09044444B4FBF8F4013C08FB04F4FB
:104EC000A04505DD304600F037FB0020BDE8F88343
:104ED0000021304601F052FEBB682B449842F1D1CC
:104EE0003046614201F04AFE013010D100213046C7
:104EF00001F044FEBA68831A0F2BE3DD0C4943F03E
:104F0000010309685360401A0A490860DAE7BB6880
:104F1000084A2D1B45F001055D60136830461B1BD8
:104F2000136000F009FB0120D0E700BF6C010020F6
:104F3000640100202C0A0020F8B504460F46002921
:104F400000F0B18000F0F2FA57F8042C564D22F030
:104F50000100A7F1080303EB000CA968DCF804606A
:104F6000614526F0030602F001021BD106443AB95E
:104F700057F8082C9B1A1644D3E90212CA609160B4
:104F800046F001025A60AB60484B1B68B34204D83C
:104F9000474B20461968FFF779FF2046BDE8F840E7
:104FA00000F0CABACCF80460002A38D157F8081CBF
:104FB00005F108075B1A08449968B94231D0DF68E7
:104FC000CF60B9600CEB06014968C9070BD4DCF867
:104FD000081030443ABB374EB14224D10122C5E912
:104FE0000433C3E9021140F0010159601850002A4E
:104FF000D3D1B0F5007F1BD20121C2084009814006
:10500000686801320143696055F8320005EBC2015E
:105010000839C3E9020145F83230C360BDE7002218
:10502000D0E70122CEE7DCF80C60CE60B160DAE7B1
:10503000B0F5206F4FEA502214D282093832511C49
:1050400055F8311005EBC2068E4225D10120921091
:1050500000FA02F2686802436A60C3E90216B360AC
:10506000CB609AE7142A01D85B32E8E7542A02D8C9
:10507000020B6E32E3E7B2F5AA7F02D8C20B773299
:10508000DDE740F254518A4296BF820C7E227C3288
:10509000D5E789688E4204D04A6822F00302824232
:1050A000F7D8CE68D9E7F8BD6C0100206801002070
:1050B0005C0A00207401002001F10B03162B2DE97E
:1050C000F74F054606D933F0070704D50C232B60AC
:1050D0000024A1E11027B942F8D8284600F026FAAA
:1050E000B7F5FC7FAE4E37D207F108023244546860
:1050F000A2F108018C424FEAD70302D1D468A24240
:1051000010D0D4E902126368CA6023F003039160EF
:1051100023445A6842F001025A60284600F00CFA13
:10512000083479E1023334699E498C4277D0626851
:1051300022F0030CACEB07000F2848DDE21940F029
:10514000010347F001076760C6E90422C2E90211C2
:10515000536044F80C00E0E77B0A2AD0042B12D8F5
:10516000BB0938335A1C06EBC2025468A2F1080C82
:10517000644506D0626822F00302D01B0F281CDDB4
:10518000013B0133CFE7142B01D85B33EAE7542B03
:1051900002D83B0B6E33E5E7B3F5AA7F02D8FB0BD1
:1051A0007733DFE740F25452934204D8BB0C7C3390
:1051B000D8E73F23D6E77E23D4E70028E16804DB65
:1051C000A368D9608B60A318A3E70C46D0E700283A
:1051D000C6E9041107DBA444DCF8043043F0010302
:1051E000CCF8043099E7BCF5007F706880F09380BC
:1051F0004FEADC024FEA5C1E4FF0010C0CFA0EFC89
:105200004CEA0000013256F832C0706006EBC20072
:105210000838C4E902C046F83240CCF80C400122FC
:10522000981082407068904226D3104206D123F035
:1052300003035200104203F10403FAD006EBC30843
:10524000C1469E46D9F80C404C4540F0B7800EF15F
:10525000010E1EF0030F09F10809F3D1980740F081
:10526000E180736823EA0203736070685200904221
:1052700002D3002A40F0E280D6F808A0DAF8043021
:1052800023F00309B94504D3A9EB07020F2A00F361
:105290004081454B082019680AEB090B103139444D
:1052A000019101F08FFC414A019913688046013356
:1052B0001FBF01F1FF3109184342194028460191EF
:1052C00001F05CFC421C044600F0F6808345019925
:1052D000364A02D9B24540F0EF80354BA3451868F5
:1052E00008F1FF3C0844186040F0AA801BEA0C0F4C
:1052F00040F0A680B268494441F0010151602D4A56
:105300001B6811688B4288BF13602B4A11688B425F
:1053100088BF1360D0E0BCF5206F4FEA5C2218D242
:105320004FEA9C12383202F1010E56F83EE006EBCD
:10533000C208F0452BD14FF0010C92100CFA02F28A
:1053400002437260C4E902E8C8F80840CEF80C4095
:1053500065E7142A01D85B32E5E7542A03D84FEAFF
:105360001C326E32DFE7B2F5AA7F03D84FEADC3297
:105370007732D8E740F2545E724596BF4FEA9C42BE
:105380007E227C32CFE7DEF808E0F04505D0DEF87B
:10539000042022F003026245F5D8DEF80C80D1E744
:1053A0006C010020740100205C0A002064010020D0
:1053B0002C0A0020580A0020540A00206068D4F803
:1053C0000CC020F00300A0EB070ABAF10F0F12DDAA
:1053D000A368E21947F001076760C3F80CC0CCF876
:1053E00008304AF00103C6E90422C2E90211536001
:1053F00044F800A091E6BAF1000F11DB20444368A5
:1054000043F00103436054F8083F2846C3F80CC03A
:10541000CCF8083000F090F8204603B0BDE8F08FDB
:10542000644611E758F80809013B40453FF416AFC0
:105430001BE7043352001042FBD0FFE67346FAE745
:10544000D2F800E0BEF1FF3F1BBFA4EB0B0B0BEB50
:10545000000214601A6014F0070B0EBF5846CBF11F
:1054600008002418621802EA0C018044A8EB010825
:1054700008EA0C0841462846019201F07FFB431CD4
:10548000019A294B07D1BBF1000F23D04FF0000840
:10549000ABF1080010441A68001B4044424440F03D
:1054A0000100B245B4601A6060603FF428AFB9F102
:1054B0000F0F12D801236360B3685B6823F0030306
:1054C000BB42A3EB070201D30F2A22DC284600F0DF
:1054D00033F8FDE51046D846DDE70521DAF804206B
:1054E000A9F10C0929F0070902F0010242EA0902B8
:1054F000CAF80420B9F10F0F0AEB0902C2E9011141
:105500007FF6FDAE28460AF10801FFF715FD064BB0
:10551000F5E6B46847F0010342F0010227446360F6
:10552000B7607A60F9E500BF2C0A00200148FFF758
:105530009BBC00BF240A00200148FFF796BC00BFB7
:10554000240A00202DE9F04FD7B093461F460A9158
:10555000079001F00FFB036818461993FBF7D8FA80
:105560000A9B12909B891A0614D50A9B1B698BB95A
:1055700040210798FFF7A0FD0A9B1860186130B919
:105580000C23079A13604FF0FF331493F1E140238B
:105590000A9A536100230022CDE92B33089300239C
:1055A000CDE9102300232DAC2A941E931B930E9358
:1055B00018931A9314935B461D4613F8012B0AB1F6
:1055C000252AF9D1B5EB0B060DD02C9BC4E900B60A
:1055D00033442C932B9B0133072B2B9375DC08341E
:1055E000149B334414932B78002B01F04781002245
:1055F0006B1C4FF0FF3615468DF88B20139213F875
:10560000012B0B920F930B9B203B5A2B00F29F8593
:10561000DFE813F09E009D059D05A6009D059D05F4
:105620009D0586009D059D05A900B3009D05B00060
:10563000B5009D05D000D300D300D300D300D30024
:10564000D300D300D300D3009D059D059D059D0586
:105650009D059D059D0543019D0503011501430120
:10566000430143019D059D059D059D05E6009D05A2
:105670009D0596049D059D059D05E0049D05FF047F
:105680009D059D0522059D059D059D059D059D0585
:105690009D059D059D0543019D05030117014301DE
:1056A00043014301E9001701FD009D05F6009D053A
:1056B00077049804CE04FD009D05E0049C000105DC
:1056C0009D059D0565009D059C000A9907982AAADD
:1056D00001F016F9002840F047812DAC80E7A84B77
:1056E0001E9315F0200300F0BA84073727F0070354
:1056F0001A4652F8087BD3F804800C92E8070AD5C2
:1057000057EA080307D030238DF88C300B9B45F007
:1057100002058DF88D30022325F4806500F021BC50
:10572000079801F027FA436818461A93FBF7F0F937
:105730001890079801F01EFA83680E93189B2BB1FE
:105740000E9B1BB11B780BB145F480650F9B56E790
:105750009DF88B30002BF9D120238DF88B30F5E7A5
:1057600045F00105F2E757F8043B002B1393EDDAFF
:105770005B42139345F00405E8E72B23EDE70F9B0D
:1057800013F8012B2A2A0B9211D157F8046B0F93AF
:1057900046EAE676DAE701FB062613F8012B0B92C0
:1057A0000B9A303A092AF6D946EAE6762AE7002625
:1057B0000A21F5E745F08005C8E700230A22139384
:1057C0000B9B1399303B02FB013313930F9B13F890
:1057D000011B0F93A1F13003092B0B91F0D912E7B4
:1057E00045F00805B2E70F9B1B78682B01BF0F9BA4
:1057F00045F4007501330F9318BF45F04005A5E748
:105800000F9B1B786C2B05D10F9B01330F9345F039
:1058100020059BE745F0100598E73A4652F8043B0F
:105820008DF8F43000230C928DF88B309A460126C7
:10583000994698461F460D930DF1F40BB7E145F0DC
:105840001005AB0613D5073727F007031A4652F8A1
:10585000087BD3F804800C92B8F1000F05DA2D23F1
:105860007F4268EB48088DF88B3001237CE33A4691
:1058700052F8043BEF060C9203D51F464FEAE3783B
:10588000EAE7680603D51FB243F3C038E4E7A90589
:10589000F3D55FB243F3C018DEE7073727F00703FD
:1058A0001946F1E80223CDE91023109B0C911C93BB
:1058B000119B4FF0FF3223F000431D93DDE91C01E3
:1058C000304BFBF7C7FB00BBDDE91C014FF0FF329B
:1058D0002C4BFBF7A1FBC0B9DDE91001002200232E
:1058E000FBF790FB10B12D238DF88B30264A274B08
:1058F0000B994FF0000A4729CCBF93469B460326DD
:1059000025F08005D14600F0F0BFDDE910231046F8
:105910001946FBF79FFB824640B1119B1C4A002BA6
:10592000BCBF2D238DF88B301A4BE1E70B9B612B0D
:1059300023D0412B30D158233022632E8DF88C2078
:105940008DF88D3045F0020540F38D800798711C6D
:10595000FFF7B2FB8346002840F08A800A9B0A9A30
:105960009B8943F0400393810A9B9B895B063FF52B
:105970000AAE149857B0BDE8F08F7823DCE700BF7B
:1059800034A30008FFFFEF7F28A3000824A300082A
:1059900030A300082CA30008721C6BD00B9B23F0D3
:1059A0002003472B01D1002E66D045F48073159358
:1059B000119B002B63DA109B1693119B03F100439C
:1059C00017932D231F930B9B23F02008B8F1410F51
:1059D00040F0D181DDE9160124AA01F00DF9002281
:1059E0004FF07F53FBF79CF802460B46CDE90823A6
:1059F00000220023FBF7FCFA08B101232493244A78
:105A0000244B0B995F46612908BF1A46013E0D924F
:105A10000022DDE90801204BFBF782F88046894629
:105A2000CDE90889FBF72CFB8046FAF7E3FC024638
:105A30000B46DDE90801FAF78FFB0B460246CDE97C
:105A400008230D9B13F8083007F8013B731C25D081
:105A50000022002306F1FF38FBF7CAFAA8B13B4643
:105A60003020B9197EE14FF0000A0DF1F40B9CE7EC
:105A700082469AE7062698E7B246012695E7DDE9D1
:105A80001023CDE9162300239CE74646C0E700BF5C
:105A900045A3000834A30008000030400022AD4BAD
:105AA000FBF7CEFA50B9DDE908010022A94BFBF75C
:105AB0009FFA0028D3D018F0010FD0D030200D9BD2
:105AC0002897D97B289A531E289312F8013C8B42C1
:105AD00000F03C81392B0BBF0D9B01339B7ADBB26D
